:020000004D2889
:100008007E1480314E01161E0A280B284B287E01CB
:10001800BE1E0F2810284B28BF1E132814284B2853
:10002800BF124E010C1240010C1A1B281D2801306A
:100038001E280030F0008C1A222824280130252898
:1000480000307006031D29282A282F28FF30BF07F3
:10005800FF30C03D33280130BF070030C03DC01F0E
:10006800362837283B28C330BF000930C000400875
:10007800803AF00089307002031D4428C4303F02E2
:10008800031C472848284B284001BF01C0017E10A7
:1000980009004E28FC0120308400003085002530FE
:1000A8008231BD2280317E104001C8294001D5012E
:1000B800D50ADB015B08CC00CD01CC1BCD03033096
:1000C800CE004C084E02CF004D090318890AD00013
:1000D800CF35D00DAD304F0784000230503D803809
:1000E8008500003FD600013FD7005708F2005608A8
:1000F800F1004708F4004608F3008031E42080311D
:1001080072084001DA007108D90059085A04031D21
:100118008E288F28A8284908031D932894289F28EB
:1001280055080319982899289F2803305B06031D52
:100138009E289F28A628590882318F2280314001A5
:10014800D800BF28D801BF28590882318F228031B2
:100158004001D8005A08F2005908F1005708F40085
:100168005608F30082311122803171084001C6021D
:100178007208C73BD50148088039CC004C08D80420
:100188000310C80D5B08513E86008701580881009E
:100198000130CC004C08DB075B08803A7C3E031C2E
:1001A800D628D7285E284A08043C513EF600F701B5
:1001B8004A08F8004B08F90081318821803108008D
:1001C800F701F21FE828E928F028F109F209F10AF5
:1001D8000319F20AF701F70AF41FF328F428FD2897
:1001E800F309F409F30A0319F40A0130F500750854
:1001F800F706F801F90171087204031904290529A1
:100208003429F601F60A11290130F135F20D890B6E
:1002180009290130F5007508F607F21F1429152978
:1002280008290130F835F90D890B1629720874026E
:10023800031D202971087302031C23292429292955
:100248007108F3027208F43B78140130F236F10CAD
:10025800890B2A290130F602031D3329342915296F
:1002680077080319382939293E29F809F909F80ABC
:100278000319F90A7908F2007808F1000800F20079
:100288007208F400F501400192108231CD228131CB
:10029800741C4F2950295329400112155529400132
:1002A80012118231CD228131400192148231CD2246
:1002B80081317436F4000130F1007108F507083017
:1002C8007502031C682969294729400192101215F3
:1002D8008231CD228131400192148231CD22813187
:1002E800003040010C190130F3007308031D7D290B
:1002F8007E297F2912118231CD228131400192104D
:100308008231CD22813108008231C32281314030CF
:100318008131432181318231642281318231C3228A
:10032800813179080339C03E81314321813140014F
:10033800C501B2297708FB007608FA0045087A0754
:1003480084007B0803187B0A85000008813143215B
:1003580081310130FA007A084001C5077808450262
:10036800031CB729B8299E29823164228131823140
:10037800C32281317C080F39803E8131432181318C
:10038800823164228131080082313022813140017A
:100398004008DD003F08DC00DC35DD0DDC35DD0D17
:1003A8005C08BD005D08BE003E08C7003D08C600E9
:1003B8004030C800C901C90A0430CA00CB018031E5
:1003C8005A20813134304001DC00F130890BEA29B0
:1003D800DC0BEA290032CB294D28003400340034E4
:1003E8000034003400340034003400340034003465
:1003F8000034003400340034003400340034003455
:100408000034003400340034003400340034003444
:1004180000340034003400340034F501F601711C56
:10042800162A172A1B2A7308F5077408F63D0130A7
:10043800F335F40D890B1C2A0130F236F10C890BC7
:10044800212A71087204031D2A2A2B2A132A7608E6
:10045800F2007508F10008008231822282314E01D3
:1004680016167E01BE164E010C120B178B17F101E2
:10047800F10A03308231422282310800F200710809
:10048800031D472A482A4B2AF301F4014F2A083052
:10049800F3000030F400720807397304FC00080008
:1004A8003F3406345B344F3466346D347D3407345E
:1004B8007F346F3477347C3439345E347934713432
:1004C800400112118231CD228231400192148231D1
:1004D800CD228231400112158231CD2282310800AD
:1004E80040019801303092007E01B8013030B900E7
:1004F800BA013730BB003F30BC0008008231B5225A
:1005080082318231A4228231823174228231823155
:100518009A2282310800F10071080F39543E840094
:1005280082300318013E850000080800623051013E
:100538008D008F019101063093009001920108000F
:1005480043018F0108309000910113308D00901203
:100558000800013400340A34003464340034E834C8
:1005680003344F0196019701980199019A019B0163
:100578000800640080010131890BBE2A0034400163
:1005880012118231CD22823108005E343F34543456
:0A05980079343230890BCE2A0800B6
:020000040001F9
:0A000E00EC3FFF3F9F3FFF3FFF3F25
:00000001FF
